:100000000C94CB060C9412070C9412070C94120754
:100010000C9412070C9412070C9412070C941207FC
:100020000C9412070C9412070C94D2280C94A42957
:100030000C94051B0C9412070C9412070C941207D5
:100040000C9412070C9412070C9412070C941207CC
:100050000C9412070C94791B0C9412070C94120741
:100060000C9412070C9412070C9412070C941207AC
:100070000C9412070C9412070C9412070C9412079C
:100080000C9412070C9412070C9412070C9412078C
:100090000C9412070C9412070C9412070C9412077C
:1000A0000C9412070C9412070C941207ED08EF0839
:1000B000FA08F108F308F508F708F908FC08FE0843
:1000C00000090B0902090409060908090A090D09B2
:1000D000FE10FE10301130116E118E11FE12FE1244
:1000E000D011FE127D127D12EE12FE12FE12F712D8
:1000F0008A128A128A128A128A128A128A128A1220
:100100008A128A128A128A128A128A128A128A120F
:100110009B12A912B012B712C1128D138D139F1327
:100120009F1396139F139F139F138D138D139B1370
:100130009F139F139B13112A382A2A2B382A2A2B04
:10014000842AA72A2A2BFD2A0C2B68747470733A10
:100150002F2F716D6B2E666D2F012800514D4B2096
:100160006973207468652062657374207468696EB1
:1001700067206576657221001D011B0106011901CA
:100180005000510052004F0044454255473A206507
:100190006E61626C65642E0A0000000000000000C1
:1001A000002A2B28000000000000000000000000D2
:1001B0000000000029000000002C1E342021222411
:1001C000342627252E362D3738271E1F202122239F
:1001D0002425263333362E37381F04050607080931
:1001E0000A0B0C0D0E0F10111213141516171819F7
:1001F0001A1B1C1D2F3130232D3504050607080955
:100200000A0B0C0D0E0F10111213141516171819D6
:100210001A1B1C1D2F3130354C000000000000005F
:1002200000000000000000000000000000000000CE
:1002300000000000000000000000000000000000BE
:1002400000000000000000000000000000000000AE
:10025000000000000000000000000000000000009E
:10026000000000000000000000000000000000008E
:10027000000000000000000000000000000000007E
:10028000000000000000000000000000000000006E
:10029000000000000000000000000000000000005E
:1002A000000000000000000000000000000000004E
:1002B0000000000000000000000001010101010138
:1002C000000101010100000000000000000000002A
:1002D0000000000100010001010101010101010113
:1002E00001010101010101010101010101010101FE
:1002F00001010101000000010100000000000000F8
:1003000000000000000000000000000000000000ED
:100310000000000001010101000A002530386200E0
:100320003A200025303258000A722F6320303132D3
:1003300033343536370A000A002530325820006B36
:100340006579626F6172645F7265706F72743A2072
:10035000000A0025303258006B6579626F61726463
:100360005F7365745F6C65643A2000290A00257527
:10037000002F002575005D280025640020002564FD
:1003800000200025640020002564007C0025303218
:1003900058006D6F7573656B6579205B62746E7C58
:1003A000782079207620685D287265702F61636CF3
:1003B000293A205B006D6B5F776865656C5F7469D7
:1003C0006D655F746F5F6D6178203D2025640A0064
:1003D0006D6B5F776865656C5F6D61785F73706585
:1003E0006564203D2025640A006D6B5F74696D654E
:1003F0005F746F5F6D6178203D2025640A006D6B2E
:100400005F6D61785F7370656564203D2025640AC7
:10041000006D6B5F696E74657276616C203D20259E
:10042000640A006D6B5F64656C6179203D20256412
:100430000A006D6B5F776865656C5F74696D655FF9
:10044000746F5F6D6178203D2025640A006D6B5FDD
:10045000776865656C5F6D61785F73706565642052
:100460003D2025640A006D6B5F74696D655F746F74
:100470005F6D6178203D2025640A006D6B5F6D61C2
:10048000785F7370656564203D2025640A006D6B9C
:100490005F696E74657276616C203D2025640A0088
:1004A0006D6B5F64656C6179203D2025640A000AEC
:1004B00000257500363A20776865656C5F74696D54
:1004C000655F746F5F6D61783A20000A00257500E2
:1004D000353A20776865656C5F6D61785F7370652C
:1004E00065643A20000A00257500343A2074696D6D
:1004F000655F746F5F6D61783A20000A00257500B2
:10050000333A206D61785F73706565643A20000A44
:1005100000257500323A20696E74657276616C2828
:100520006D73293A20000A00257500313A20646570
:100530006C6179282A31306D73293A20000A092D1F
:100540002056616C756573202D0A004D3E004D25C7
:10055000643E20003F007365742064656661756CBD
:10056000740A00433E200077686572652064656CFC
:1005700074613A20637572736F723D25642C207725
:100580006865656C3D25640A536565206874747000
:100590003A2F2F656E2E77696B6970656469612EDD
:1005A0006F72672F77696B692F4D6F7573655F6B1E
:1005B0006579730A000A092D204D6F7573656B65A7
:1005C00079202D0A4553432F713A09717569740AD0
:1005D000313A0964656C6179282A31306D73290AD2
:1005E000323A09696E74657276616C286D73290AF6
:1005F000333A096D61785F73706565640A343A094E
:1006000074696D655F746F5F6D61780A353A09775B
:100610006865656C5F6D61785F73706565640A36E7
:100620003A09776865656C5F74696D655F746F5FC3
:100630006D61780A0A703A097072696E7420766189
:100640006C7565730A643A09736574206465666144
:10065000756C74730A75703A092B310A646F776E82
:100660003A092D310A706775703A092B31300A70DA
:1006700067646F776E3A092D31300A0A73706565C9
:1006800064203D2064656C7461202A206D61785F70
:100690007370656564202A20287265706561742016
:1006A0002F2074696D655F746F5F6D6178290A0032
:1006B0003F004D3E2000433E20004C25640A00745C
:1006C000696D65725F72656164333228293A20254D
:1006D00030346C580A006B6579626F6172645F69CF
:1006E000646C653A2025580A006B6579626F617207
:1006F000645F70726F746F636F6C3A2025580A00E4
:10070000686F73745F6B6579626F6172645F6C654B
:10071000647328293A2025580A000A092D205374A9
:1007200061747573202D0A004743433A20342E39F3
:100730002E32204156522D4C4942433A20312E3818
:100740002E3073766E204156525F415243483A2014
:10075000617672350A004F5054494F4E533A204C3F
:10076000554641204D4F5553454B4559204558540A
:1007700052414B455920434F4E534F4C4520434F18
:100780004D4D414E4420343039360A004255494CD3
:10079000443A2022302E362E3334382D382D673807
:1007A0006530353162362D646972747922202832C1
:1007B000313A30383A3134204A756E2020342032B4
:1007C000303139290A005649443A203078464545A7
:1007D0004428526573746F664B75726F29205049B7
:1007E000443A20307830303030286D65697368695C
:1007F0006B626429205645523A20307830303031CF
:100800000A00444553433A204120637573746F6D69
:10081000206B6579626F6172640A000A092D2056A7
:10082000657273696F6E202D0A000A092D20436FCF
:100830006E736F6C65202D0A4553432F713A097111
:100840007569740A6D3A096D6F7573656B65790A20
:10085000000A092D204D61676963202D0A443A0979
:100860004465627567204D65737361676520546FD9
:1008700067676C650A583A094D617472697820445B
:1008800065627567204D6F646520546F67676C659E
:10089000202D2053686F77206B65797072657373B4
:1008A000657320696E206D61747269782067726962
:1008B000640A4B3A094B6579626F61726420446542
:1008C00062756720546F67676C65202D2053686FD1
:1008D00077206B65797072657373207265706F72C3
:1008E000740A4D3A094465627567204D6F757365EA
:1008F00020546F67676C650A563A095665727369CA
:100900006F6E0A533A095374617475730A433A0956
:10091000416374697661746520436F6E736F6C65B3
:10092000204D6F64650A46312D4631303A095377C0
:100930006974636820746F204C6179657220302D72
:10094000392028463130203D204C30290A302D39BD
:100950003A0953776974636820746F204C61796534
:100960007220302D390A47524156453A095377696A
:1009700074636820746F204C617965722030202880
:10098000616C7465726E617465290A423A094A7530
:100990006D7020746F20426F6F746C6F616465724C
:1009A0000A4553433A094A756D7020746F20426FAF
:1009B0006F746C6F616465722028616C7465726E0F
:1009C000617465290A453A095072696E742045457B
:1009D00050524F4D2053657474696E67730A4253C9
:1009E000504143453A09436C656172204545505278
:1009F0004F4D0A000A002575002E6E6B726F3A206B
:100A0000000A002575002E737761705F6261636B69
:100A1000736C6173685F6261636B73706163653A85
:100A200020000A002575002E737761705F67726180
:100A300076655F6573633A20000A002575002E6EA7
:100A40006F5F6775693A20000A002575002E73777D
:100A500061705F72616C745F726775693A20000A39
:100A6000002575002E737761705F6C616C745F6C2C
:100A70006775693A20000A002575002E636170735E
:100A80006C6F636B5F746F5F636F6E74726F6C3AE1
:100A900020000A002575002E737761705F636F6E0A
:100AA00074726F6C5F636170736C6F636B3A20007C
:100AB0000A0025303258006B65796D61705F636F95
:100AC0006E6669672E7261773A20000A002575000C
:100AD0002E6D6F7573653A20000A002575002E6B28
:100AE0006579626F6172643A20000A002575002EF4
:100AF0006D61747269783A20000A002575002E65D0
:100B00006E61626C653A20000A002530325800643C
:100B1000656275675F636F6E6669672E7261773AAB
:100B200020000A0025750064656661756C745F6C51
:100B3000617965723A20003F000A6D6F7573653AFE
:100B4000206F66660A000A6D6F7573653A206F6ED6
:100B50000A000A6B6579626F6172643A206F66669B
:100B60000A000A6B6579626F6172643A206F6E0ADF
:100B7000000A6D61747269783A206F66660A000A2D
:100B80006D61747269783A206F6E0A000A6465625A
:100B900075673A206F66660A000A64656275673A8F
:100BA000206F6E0A000A0A4A756D70696E672074BC
:100BB0006F20626F6F746C6F616465722E2E2E20D1
:100BC00000433E2000436C656172696E67204545B5
:100BD00050524F4D0A006565636F6E6669673A0A49
:100BE000005B735D004B6579626F617264207374A2
:100BF0006172742E0A005B575D005B535D005B52AF
:100C00005D005B445D005B435D0004033000000059
:100C100014036D00650069007300680069006B00D3
:100C20006200640000001603520065007300740047
:100C30006F0066004B00750072006F000000040337
:100C4000090409025B00030100A0FA090400000185
:100C50000301010009211101000122400007058163
:100C60000308000A09040100010300000009211122
:100C70000100012285000705820320000A09040201
:100C800000020300000009211101000122220007D7
:100C90000583032000010705030320000112011052
:100CA0000100000008EDFE00000100010203010642
:100CB00031FF0974A1010975150026FF0095207503
:100CC0000881020976150026FF009520750891021B
:100CD000C005010902A10185020901A10005091948
:100CE00001290515002501950575018102950175FC
:100CF0000381010501093009311581257F950275B0
:100D000008810609381581257F950175088106053A
:100D10000C0A38021581257F950175088106C0C02F
:100D200005010980A10185031601002603001A812F
:100D3000002A8300751095018100C0050C0901A1EE
:100D4000018504160100269C021A01002A9C0275E6
:100D50001095018100C005010906A101050719E0F0
:100D600029E715002501950875018102950175088F
:100D70008101050819012905950575019102950163
:100D8000750391010507190029FF150026FF00953D
:100D90000675088100C011241FBECFEFDAE0DEBF68
:100DA000CDBF04B603FE27C08091CB019091CC014A
:100DB000A091CD01B091CE018730904BA740B04BB0
:100DC000D1F41092CB011092CC011092CD0110926F
:100DD000CE0114BE84B7877F84BF0FB6F894A89560
:100DE00080916000886180936000109260000FBE67
:100DF000E0E0F8E3099511E0A0E0B1E0E6EBF7E50B
:100E000002C005900D92A433B107D9F721E0A4E305
:100E1000B1E001C01D92AB3CB207E1F70E94ED25A5
:100E20000C94D92B0C940000FF93EF93E0913401C4
:100E3000F0913501309709F00995EF91FF910895F0
:100E4000FC018591803011F0EFDFFBCF0895FF2783
:100E5000E0E230E247FF0CC0419597FF09C0EDE2A8
:100E60006095709580959095611D711D811D911DF6
:100E700027FF02C0219530E350E2AA27660F771FB3
:100E8000881F991FAA1FA41710F0A41B63955A95D9
:100E9000A9F7AA3008F0A95FA05DAF93F39561159B
:100EA00071058105910541F7ED3211F4EF93F3954A
:100EB000F21718F43F93F395FBCF8F91B5DFFA95B6
:100EC000E1F70895E991F9918591803021F085321B
:100ED00019F0AADFF9CF089520E0E8945591553232
:100EE000C1F3503311F4689455915A3348F4505378
:100EF00090F3220F022E220F220F200D250FF4CF88
:100F00000EF4219589919991533619F3533729F1AC
:100F1000533559F1BC0188279927E8945C3621F4B0
:100F20008991999168945591543639F446EF7EF041
:100F300077FF0DC08FEF9FEF0AC055374AE039F0B9
:100F4000583540E121F0523642E009F00895FF9310
:100F5000EF937DDFEF91FF91B7CFFF93EF93FC010C
:100F600081918030B9F360DFFBCFFF93EF9368DFAF
:100F7000F1CFDF93CF93CDB7DEB72596A3DFCF9127
:100F8000DF910895843F2CE5920721F0853F9C4531
:100F900041F00FC0FB018281882359F08CE591E07C
:100FA00006C0FB018281882321F08AE491E00E943F
:100FB0008B0881E0089508950895089581E00895CB
:100FC0000C94C2071F93CF93DF9300D000D01F92E1
:100FD000CDB7DEB749835A832091470189819A8131
:100FE000211112C0662349F00E94B218182F682FF1
:100FF00089819A810E94571803C00E948618182F71
:1010000069817A81812F04C00E94B21869817A8136
:101010000F900F900F900F900F90DF91CF911F9135
:101020000C949A09FC014081518162817381848111
:101030000C94E2071F93CF93DF93282F30E0F90140
:10104000E756FE4F1491F901E756FD4FE491C1E0D8
:10105000E11101C0C0E0F901E75EFD4F2491D1E04C
:10106000211101C0D0E0CC2319F081EE0E94110FB4
:10107000DD2319F086EE0E94110F812F0E94B2101D
:10108000DD2319F086EE0E944A10CC2331F081EE68
:10109000DF91CF911F910C944A10DF91CF911F9156
:1010A00008950F931F93CF93DF93EC01062FFE015A
:1010B0008491882359F19E012F5F3F4F813041F485
:1010C000E901F9011491812F0E94110F812F0DC0A8
:1010D000823031F4E901F90184910E94110F0AC0B4
:1010E000833031F4E901F90184910E944A1002C071
:1010F0000E941A082196802F8823C9F2EFE9FFE0A9
:101100003197F1F700C000008150F6CFDF91CF9109
:101110001F910F91089560E00C9451080E94FD19F1
:10112000811102C00E94771A0C940B0C0C940D0CC8
:101130000C94DD070C94980808950E947D130E947A
:101140009C082FEF84E39CE0215080409040E1F721
:1011500000C000000C949F1B0F931F93CF93DF934D
:101160008C010E941208EC01B8010E94E00788235C
:1011700009F4D6C0B801CE010E943C0D882309F4C1
:10118000CFC0C531FCE5DF0708F07CC0C2308CE57C
:10119000D80708F452C0F8018281882309F454C0AA
:1011A0000E94FD19811102C00E94771A0E94101A34
:1011B00090E09093BD018093BC01FE01E350FC459B
:1011C000E231F10530F4EA5AFF4F8091BC010C94F2
:1011D0007D2B8091BC01816027C0826025C0846026
:1011E00023C0806121C080621FC080641DC08068F0
:1011F0001BC08460886018C08E7F16C08D7F14C0AD
:101200008B7F12C08F7E10C08F7D0EC08F7B0CC075
:101210008F770AC08B7F877F07C087FB222720F943
:1012200091E0922790FB87F98093BC018091BC01EB
:101230000E94141A0E947D1373C0C115ECE5DE07ED
:1012400051F0C130DC4579F0C801DF91CF911F9199
:101250000F910C94DE07F8018281882309F460C0A5
:101260000E949D085DC0F8018281882309F458C05E
:1012700080919A01816080939A0188E891E00E94B0
:1012800020074EC0CC3D8CE5D80739F4F8018281A7
:10129000882309F445C080E00DC0CD3DECE5DE07B4
:1012A00060F0CD3D8CE5D80791F5F8018281882367
:1012B000B9F182E00E94952633C0C631DC4521F6A3
:1012C0000E943219282FF80182814091000150912B
:1012D0000101882379F02A7A91E009F490E0909353
:1012E0003601911102C069E201C065E3CA010E94A2
:1012F000AB1A0AC080913601811102C069E201C0B7
:1013000065E3CA010E94AD1A0E947E1909C0CE3D54
:10131000DC4509F099CFF801828181110E94771A8A
:1013200080E0DF91CF911F910F91089580E090E0D0
:1013300008950895E72FF0E0E80FF11D83E0EE0F28
:10134000FF1F8A95E1F7E60FF11DEE0FFF1FE8582A
:10135000FE4F859194910895880F991FFC01E75ED7
:10136000FC4F859194910895CF93DF930E949A0941
:101370000E946B0BEC01811520E59207F0F58115B9
:1013800030E4930708F024C1883E910500F5803EC3
:10139000910508F09CC1883A910570F4853A910551
:1013A00008F09FC08130910509F491C108F442C151
:1013B000049708F08CC13EC18F3B910508F49CC096
:1013C000803C910508F436C1805C9109F4C0811518
:1013D00040E2940758F4C11581E0D80708F077C1BE
:1013E000C03FD10508F426C1D06571C1811520E345
:1013F000920708F0E4C09F70DEC0811535E59307C1
:1014000008F044C0811544E5940708F0F8C0C11500
:1014100082E5D80708F5C11521E5D20708F0DBC041
:101420008C2F837021E030E002C0220F331F8A9599
:10143000E2F73C68CE0174E0969587957A95E1F7DE
:101440008370382BCF70C695C69580E2C89FE001A7
:101450001124C22BD32B3BC12C2F26952695CE01D0
:1014600083709927C115D34508F0BAC040E2249F84
:1014700090011124C1E0D0E002C0CC0FDD1F8A959D
:10148000E2F72C2B3D2BE901DC6821C1811549E5F0
:101490009407A0F4C11588E5D80708F0B5C0C115B8
:1014A00026E5D20708F0C6C08C2F0E94E80B8F718A
:1014B000C82FD0E0DC2FCC27D06209C181153AE5D6
:1014C000930708F4A6C090568115904208F0B2C068
:1014D0008D2F8F710E94E80BDD27D0628F71D82B82
:1014E000F6C0853A910509F4A8C0863A910509F03D
:1014F000A7C0C2E8D0E4EBC0883A910509F4A3C0C4
:10150000893A910509F4A2C08A3A910509F4A1C06B
:101510008B3A910509F4A0C08C3A910509F49FC05B
:101520008B3B910509F49EC08C3B910509F49DC04D
:101530008D3A910509F49CC0803B910509F49BC04C
:101540008E3A910509F49AC08F3A910509F499C031
:10155000813B910509F498C0823B910509F497C03D
:10156000833B910509F496C0843B910509F495C02D
:10157000853B910509F494C0863B910509F493C01D
:10158000873B910509F492C0883B910509F491C00D
:10159000893B910509F490C08D3B910509F48FC0FA
:1015A0008E3B910509F48EC08A3B910509F48DC0EC
:1015B000C0E0D4E48CC00E94AC09EC0188C099273B
:1015C000D3FF03C0EC01D86C82C0EC01D06C7FC0AB
:1015D000DF70D06A7CC0DC2FCC27C16FD06A77C0A7
:1015E00040E2249F90011124C1E0D0E002C0CC0F62
:1015F000DD1F8A95E2F7C22BD32BDA6868C0D82F9B
:10160000CC27C46FD06A63C0DC2FCC27C06FD06AF0
:101610005EC08F700E94E80B94E0D695C7959A95AE
:10162000E1F7CF70D0E0DC2FCC27D06A8F70806ECE
:10163000C82B4DC0C0E0D0E04AC0C1E8D0E447C0EC
:10164000C3E8D0E444C0C2EED4E441C0C9EED4E45F
:101650003EC0CAEED4E43BC0C5EBD4E438C0C6EB10
:10166000D4E435C0C3EBD4E432C0C4EBD4E42FC01F
:10167000C7EBD4E42CC0CCECD4E429C0CDECD4E44A
:1016800026C0C3E8D5E423C0CAE8D5E420C0C2E937
:10169000D5E41DC0C4E9D5E41AC0C1E2D6E417C040
:1016A000C3E2D6E414C0C4E2D6E411C0C5E2D6E475
:1016B0000EC0C6E2D6E40BC0C7E2D6E408C0CFE64F
:1016C000D4E405C0C0E7D4E402C0CAE2D6E4CE0147
:1016D000DF91CF9108958238910549F1B0F48133BB
:1016E000910509F458C048F48932910509F44EC0B7
:1016F0008A32910509F454C008958533910509F49F
:1017000040C08933910599F00895833E910529F1F0
:1017100038F4803E910591F0823E9105A1F0089544
:10172000863E9105F9F0873E910531F108952091AB
:10173000BC0120FD3AC021FD38C008958091BC0154
:1017400080FD35C032C08091BC0182FF32C08091E3
:10175000BC0184FD30C083EE39C08091BC0182FDA4
:1017600028C0F5CF8091BC0183FF27C08091BC01C8
:1017700084FD21C087EE2AC08091BC0183FD1DC07D
:10178000F5CF8091BC0185FD1AC01BC08091BC01C2
:1017900085FD17C014C08091BC0186FD14C015C022
:1017A0008091BC0186FD11C00EC080EE0FC089E3A0
:1017B0000DC082EE0BC080E009C086EE07C089E252
:1017C00005C085E303C08AE201C081E390E008958B
:1017D0009091BC0192FF0DC0282F2871283019F478
:1017E000877F846006C0282F2471243011F48B7FFA
:1017F000886093FF0DC0282F2871283119F4877E47
:10180000846106C0282F2471243111F48B7E8861F5
:1018100094FD877E08950C94DB070C94DC07E82F79
:10182000F0E0E95CFE4F8081089588E293E00E9439
:1018300020071F921F9283E293E09F938F930E9451
:10184000B90780E293E00E942007809137010E944F
:10185000E7191F928F938BE193E09F938F930E94E0
:10186000B9078DB79EB708960FB6F8949EBF0FBE06
:101870008DBF89E193E00C9420070898A3E1B1E0C3
:1018800041E050E028E02A0F8D91E82FE295EF70BB
:10189000F0E031A18F70BA0102C0660F771F8A9500
:1018A000E2F7CB01962F9095932391A392A1892BD8
:1018B00082A32A13E9CF109238011092370181E0F8
:1018C0000E94A60C0C948E08609138011092380189
:1018D000089A109880EA8A95F1F7A3E1B1E020E038
:1018E00030E071E04D91E42FE295EF70F0E080A1DF
:1018F0005091380190E04F7002C0959587954A95B8
:10190000E2F780FD07C0872F022E01C0880F0A94DE
:10191000EAF701C080E0852B809338012F5F3F4FAD
:1019200028303105F9F60898109A21E080913801A5
:10193000681301C020E041E067E371E088E391E0D3
:101940000E94A70C0E94960881E008950895FF92D6
:101950000F931F93CF93DF938C01F62ED72FC42FB5
:10196000222349F081E080933B010E94371B909332
:101970003A018093390180913B018823C1F0809125
:10198000390190913A010E944F1B069780F0EF2D8C
:10199000FD2FD8014C2F50E0CD01801B910B8417F7
:1019A00095071CF48D918193F7CF10923B01DF9145
:1019B000CF911F910F91FF9008950F931F93CF9395
:1019C000DF93C62FD42F022FFC01828110E2160F65
:1019D0008823B9F060933E010E94371B90933D012C
:1019E00080933C01183008F042C0C77081E001C00C
:1019F000880FCA95EAF7DF91CF911F910F910C9450
:101A0000BA10183048F481E0962F977001C0880F03
:101A10009A95EAF70E94C11080913E018C1327C06D
:101A200080913C0190913D010E944F1B883C9105A3
:101A3000F0F4C0E2CD0FC83048F481E09D2F9770DC
:101A400001C0880F9A95EAF70E94BA10802F0E9471
:101A5000B210C83060F4D77081E001C0880FDA9509
:101A6000EAF7DF91CF911F910F910C94C110DF9194
:101A7000CF911F910F9108959C01CB01203F4CE520
:101A8000340719F178F4283D4CE53407B9F0293DC5
:101A90004CE5340731F1273D3C4531F526E241EE76
:101AA00061EE0FC0223F4CE53407B9F090F0233FC0
:101AB0003C45D1F427E246EE66EE03C027E245EE50
:101AC00065EE0E94DD0C80E0089526E240EE60EEB7
:101AD000F8CF27E244EE64EEF4CF26E242EE62EE67
:101AE000F0CF28E241E0ECCF10923E0181E0089572
:101AF00090934401809343010895E0914301F09154
:101B00004401309721F00190F081E02D099480E0AC
:101B10000895EF92FF920F931F93CF93DF93E0917D
:101B20004301F09144013097B1F18C010280F381BF
:101B3000E02D099580919A0182FF2DC080FF04C09D
:101B40008FE393E00E942007E80118E089E3E82E84
:101B500083E0F82E80919A0180FF0BC088811F924C
:101B60008F93FF92EF920E94B9070F900F900F9002
:101B70000F90115021961111EDCF80919A0180FFA5
:101B80000AC087E393E0DF91CF911F910F91FF90FF
:101B9000EF900C942007DF91CF911F910F91FF9050
:101BA000EF900895E0914301F0914401309739F0AE
:101BB00022E0DC012C930480F581E02D0994089546
:101BC00020914101309142018217930771F0909367
:101BD000420180934101E0914301F091440130972B
:101BE00021F00680F781E02D0994089520913F01AE
:101BF000309140018217930771F0909340018093D8
:101C00003F01E0914301F0914401309721F00084BD
:101C1000F185E02D0994089585B7806885BF85B763
:101C2000806885BF0895089508950C94140E089552
:101C30000C94170E0E940C0E0E94130E0C94150E9D
:101C400081E008950E942E1B0E943D0C0E94C31B40
:101C50000C94180ECF93C82F80919A0182FF1EC05A
:101C600080FF04C088E593E00E94200780919A01DC
:101C700080FF0CC01F92CF9383E593E09F938F93D7
:101C80000E94B9070F900F900F900F9080919A01CA
:101C900080FF04C081E593E00E9420078C2FCF9144
:101CA0000C949A080F931F93CF93DF93CDB7DEB7B1
:101CB0002B970FB6F894DEBF0FBECDBF0E94640C09
:101CC0000E94200E882309F445C080E00E940F0C7A
:101CD00040914601182F1427E9F190919A0191FF44
:101CE00004C08B870E94150C8B8520E030E0412FCB
:101CF00050E0BA01022E02C0759567950A94E2F78A
:101D000060FF23C02E831F8201E010E002C0000F9D
:101D1000111F2A95E2F790E08023912321E0892B7F
:101D200009F420E028870E94371B8160782F9A876A
:101D300089874E815F8168858A850E94DD0E80914A
:101D4000460108270093460115C02F5F3F4F2830FA
:101D5000310579F68FEF89838A831B820E94371BB6
:101D60008160782F9D838C8349815A816B818D811D
:101D70000E94DD0E0E94D81D109145010E947D0D2C
:101D8000181781F00E947D0D809345012B960FB6A8
:101D9000F894DEBF0FBECDBFDF91CF911F910F91A1
:101DA0000C942A0E2B960FB6F894DEBF0FBECDBF53
:101DB000DF91CF911F910F910895CF93DF93CDB70E
:101DC000DEB72B970FB6F894DEBF0FBECDBF4F83A3
:101DD000588769877A878B87DE01119686E0FD0137
:101DE00011928A95E9F785E0FE01379601900D92F0
:101DF0008A95E1F749815A816B817C818D819E8131
:101E00000E9427162B960FB6F894DEBF0FBECDBFEB
:101E1000DF91CF910895FC01808191810E94F31898
:101E20000895CF93DF931F92CDB7DEB7882309F4CF
:101E30002DC1682F8238C1F40E947D0D81FD26C11D
:101E400069E380910001909101010E94AB1A0E9408
:101E50007E192FEF81EE94E0215080409040E1F711
:101E600000C0000069E319C0833811F50E947D0DA0
:101E700080FD0CC163E580910001909101010E94F9
:101E8000AB1A0E947E192FEF81EE94E02150804022
:101E90009040E1F700C0000063E58091000190915F
:101EA00001010E94AD1A0F90DF91CF910C947E1921
:101EB0008438C1F40E947D0D82FDE8C067E4809102
:101EC0000001909101010E94AB1A0E947E192FEF30
:101ED00081EE94E0215080409040E1F700C0000086
:101EE00067E4DBCF8CEF860F813A70F4862F69832D
:101EF0000E94382269818111C9C0809100019091AE
:101F000001010E94AB1ACFCF80E2860F883048F4DF
:101F1000677081E001C0880F6A95EAF70E94351961
:101F2000C2CF8BE5860F833088F4653A29F0663A94
:101F300031F083E890E005C081E890E002C082E8DB
:101F400090E00F90DF91CF910C94E00D88E5860F23
:101F5000873108F091C0683A09F445C0693A09F43C
:101F600045C06A3A09F445C06B3A09F445C06C3A79
:101F700009F445C06B3B09F445C06C3B09F445C00E
:101F80006D3A09F445C0603B09F445C06E3A09F466
:101F900045C06F3A09F445C0613B09F445C0623B56
:101FA00009F445C0633B09F445C0643B09F445C0EE
:101FB000653B09F445C0663B09F445C0673B09F43D
:101FC00045C0683B09F445C0693B09F445C06D3B19
:101FD00009F445C06E3B09F445C06A3B09F445C0AD
:101FE00080E090E044C082EE90E041C089EE90E055
:101FF0003EC08AEE90E03BC085EB90E038C086EBB7
:1020000090E035C083EB90E032C084EB90E02FC0CD
:1020100087EB90E02CC08CEC90E029C08DEC90E038
:1020200026C083E891E023C08AE891E020C082E9DD
:1020300091E01DC084E991E01AC081E292E017C0EE
:1020400083E292E014C084E292E011C085E292E063
:102050000EC086E292E00BC087E292E008C08FE6F5
:1020600090E005C080E790E002C08AE292E00F9025
:10207000DF91CF910C94F60D603F40F0862F0E94C7
:102080005E1C0F90DF91CF910C944B1D0F90DF9150
:10209000CF910895882309F464C0823879F40E94AE
:1020A0007D0D81FF5EC069E3809100019091010187
:1020B0000E94AB1A0E947E1969E310C08338B1F404
:1020C0000E947D0D80FF4DC063E5809100019091DD
:1020D00001010E94AB1A0E947E1963E58091000104
:1020E000909101010E94AD1A0C947E19843879F404
:1020F0000E947D0D82FF35C067E4809100019091C0
:1021000001010E94AB1A0E947E1967E4E7CF9CEFA1
:10211000980F913A10F4682FE1CF90E2980F983021
:1021200050F4877091E001C0990F8A95EAF7892FE2
:102130000E943B19D9CF9BE5980F933020F480E0A3
:1021400090E00C94E00D98E5980F973120F480E032
:1021500090E00C94F60D803F20F00E94C61C0C9479
:102160004B1D0895CF93C82F0E94110F8C2FCF9134
:102170000C944A10882321F00E9435190C947E1982
:102180000895882321F00E943B190C947E1908952C
:102190004F925F926F927F92BF92CF92DF92EF92B7
:1021A000FF920F931F93CF93DF937C01D62FC72FFE
:1021B000FC01058102950F70128111110E945219C4
:1021C0000E942B19882379F0112369F080E28D0F8A
:1021D000883048F082E00E94C9190E942B1991E0D2
:1021E000B82EB92601C0B12CCC2EC2948FE0C822E3
:1021F000D12CF601E859FF4F0C947D2B8C2F807F5A
:10220000CF70882311F0C295C07F112399F0CC23A1
:1022100009F4CFC180E28D0F883010F0D11104C0D5
:102220008C2F0E94351903C08C2F0E9445190E94E3
:102230007E19BFC18D2F0E944A10CC2309F4DEC144
:1022400080E28D0F883010F0D11104C08C2F0E94D5
:102250003B1903C08C2F0E944B190E947E19CEC1DE
:102260008C2F807FCF70803211F0C295C07FDD232C
:1022700019F0D130C9F022C0112371F0002341F0D0
:10228000013031F40E9465198C2B0E946B19B6C184
:102290000E9465198C2B46C1002319F0013009F406
:1022A000ADC10E94741918C0112321F0063008F046
:1022B000A5C10EC0053008F0A1C10EC0112351F018
:1022C000002331F0F701858180FF73C18F70858312
:1022D0008C2F28C101117EC18C2F2AC18C2F86958D
:1022E0008695837090E0009719F0019761F086C1A0
:1022F000112321F08D2F9C2F937002C080E090E07D
:102300000E94E00D8BC1112321F08D2F9C2F937023
:1023100002C080E090E00E94F60D80C11123F9F028
:10232000D53F51F0D63F71F0D43FA9F48091B6016A
:102330009091B70181600BC08091B6019091B70177
:10234000826005C08091B6019091B701846090933E
:10235000B7018093B6018D2F0E945E1C1EC0D53F31
:1023600051F0D63F71F0D43FA9F48091B60190911D
:10237000B7018E7F0BC08091B6019091B7018D7F20
:1023800005C08091B6019091B7018B7F9093B70102
:102390008093B6018D2F0E94C61C0E944B1D3EC12A
:1023A0008C2F837009F050C0111134C18D2F82958C
:1023B00086958770880F880F9D2F9F70492E512C0E
:1023C000612C712C082E04C0440C551C661C771C13
:1023D0000A94D2F7D4FF14C00FE010E020E030E000
:1023E000B901A80104C0440F551F661F771F8A95C5
:1023F000D2F7CB01BA01609570958095909503C096
:1024000060E070E0CB01C695C695C370D0E0C230E5
:10241000D10561F0C330D10581F064297529862981
:102420009729219771F00E946C17F4C064297529CF
:10243000862997290E947E17EDC00E946C17C30160
:10244000B2010E945A17E6C0112319F08C2F817037
:1024500001C08695882309F4DDC08D2F829586956D
:102460008770880F880F9D2F9F70492E512C612CEB
:10247000712C082E04C0440C551C661C771C0A9451
:10248000D2F7D4FF14C00FE010E020E030E0B90133
:10249000A80104C0440F551F661F771F8A95D2F705
:1024A000CB01BA01609570958095909503C060E06E
:1024B00070E0CB01C695C695C3704C2F50E04230FA
:1024C000510569F04330510589F064297529862941
:1024D00097294130510571F00E9432189BC0642940
:1024E0007529862997290E94441894C00E943218A1
:1024F000C301B2010E9420188DC08D2F90E0FC0115
:10250000E05EF109E531F10508F04FC0E858FF4FF2
:102510000C947D2BDF708C2F8F71112331F00E9472
:10252000B9178D2F0E94BA1069C00E94DA178D2F3B
:102530000E94C11063C0112341F0053008F05EC055
:102540008C2F8F710E94FF1759C0063008F056C0BB
:10255000F7CF112339F08C2F8F710E94B9174EC01D
:102560001123C9F38C2F8F710E94DA1747C01123F2
:1025700029F08C2F8F710E94A41740C00E949F17D2
:102580003DC0112349F0CF718C2F0E94B91763E031
:102590008C2F0E94B41932C081E00E94C919023008
:1025A00068F182E00E94C91929C0112331F000238B
:1025B00091F28D2F0E94110F21C0002399F2D9337F
:1025C00049F45FEF67EE73E0515060407040E1F70F
:1025D00000C000008D2F0E944A1010C04C2F4F7079
:1025E0006D2FC7010E9496090E94CB1617C04C2F71
:1025F0004F706D2FC7010E94990910C088E0C8165E
:10260000D10441F05CF0EAE0CE1AD108F2E0CF1636
:10261000D10420F40E947D0D0E949A08BB20F1F0A5
:102620000E94271980FD1AC0F70112820E94211909
:102630000E94B917C7010E943C130E942119DF9123
:10264000CF911F910F91FF90EF90DF90CF90BF90AF
:102650007F906F905F904F900C94DA17DF91CF913D
:102660001F910F91FF90EF90DF90CF90BF907F90E0
:102670006F905F904F9008950F931F93CF93DF93C8
:10268000EC01888199812B813C81232BB9F09F3FFC
:1026900011F48F3F99F0CE010E94AC08882371F0AD
:1026A000688179818A810E94FE188C010E945618E7
:1026B0000E945717B801CE010E94C810DF91CF9138
:1026C0001F910F9108950E9452190E9462190E9451
:1026D0007E190E94661E0E944B1D80E090E00E94C1
:1026E000E00D80E090E00C94F60D80910001909157
:1026F00001010E94AF1A0C9463130E9442190C94BA
:102700007513E92FE295EF70F0E03297EE30F105A6
:10271000B0F4E357FF4F0C947D2B803F91F018F4F9
:10272000803E68F40EC0843F51F40BC0803E48F0F8
:10273000813F29F406C093FB882780F9089580E043
:10274000089581E008950E94F3180E94811308956E
:10275000CF93DF9300D000D01F92CDB7DEB70F909C
:102760000F900F900F900F90DF91CF910895CF931E
:10277000DF9300D000D000D0CDB7DEB726960FB6DD
:10278000F894DEBF0FBECDBFDF91CF9108951F93A8
:10279000CF93DF93C091480116E080914901C8179B
:1027A00099F0D0E01C9FF0011D9FF00D1124E65B15
:1027B000FE4F4081518162817381848195810E94A5
:1027C000B7132196C770E9CFDF91CF911F9108957C
:1027D00040917A0150917B0160917C0170917D0163
:1027E00080917E0190917F010C94B71380917F01BD
:1027F00082958F7009F054C080917C01882309F480
:102800004FC080914801A091490160917A01709177
:102810007B0140917D0150917E01B6E08A1709F459
:102820003FC090E041155105C1F17F3F11F46F3F6A
:10283000A1F1B89FF001B99FF00D1124E65BFE4FA6
:10284000218172132AC02081621327C022812111A5
:1028500024C0238134812417350710F42150310915
:10286000241B350B283C3105C0F420917F012F70CB
:10287000206120937F0126E0289FF001299FF00D21
:102880001124E15BFE4F80818F70806180838AE735
:1028900091E00E943C130C94C71301968770BECF41
:1028A0000895CF92DF92EF92FF920F931F93CF93F1
:1028B000DF93CDB7DEB762970FB6F894DEBF0FBED9
:1028C000CDBF8C0185E0F801DE011D9601900D92CF
:1028D0008A95E1F7D8014C9111965C911197129667
:1028E0006C9112971396CD90DC90149730917A01E9
:1028F00070917B0180917D0190917E01009709F498
:102900006BC17F3F19F43F3F09F466C1E0907C0141
:10291000EE2009F4C0C020917F01C816D90628F026
:10292000F601E81BF90BCF0104C0809590958C0D42
:102930009D1DFF24F394883C910578F0F12C207FB5
:1029400009F0C6C07C2DD98AC88A89890E94A8133B
:102950008AE791E00E943C13B1C0822F807F09F08A
:1029600046C0751314C0341312C0611110C02F700B
:10297000206120937F010E94E8138AE791E00E9482
:102980003C1380917F01D80115968C932EC0CD28E1
:1029900019F15F3F11F44F3FF9F0F62E61111CC0A1
:1029A000809148012091490136E0821709F45AC00C
:1029B00090E0389FF001399FF00D1124E65BFE4F47
:1029C0007181571306C07081471303C07281711162
:1029D00003C001968770E9CFF62E662309F427C15C
:1029E00080917F01816080937F01F12C20C175135C
:1029F00008C0341306C0611104C080917F01D80162
:102A0000C3C04D875E878D859E856A8B0E94A31308
:102A10006A898823E1F16623D1F120917F01822F19
:102A200082958F7090E0029774F080917A01909176
:102A30007B0198878F831986DB86CA862C87CE0117
:102A400007960E943C1386E0F801AAE7B1E00190E6
:102A50000D928A95E1F70E94F6130E94E813FF2475
:102A6000F394E5C04D875E878D859E850E94F3189F
:102A7000292F22952F7030E0223031050CF0CBC089
:102A80009F7009F0C5C0805E883008F4D0C0C801CE
:102A90000E943C13E4CFC816D90608F453C0F601CF
:102AA000E81BF90BCF01883C910508F450C0F12CCC
:102AB0007C2DD98AC88A89890E94A813EAE7F1E0A7
:102AC00086E0DF011D928A95E9F70E94E813AFC006
:102AD000751314C0341312C0611110C080917F01AE
:102AE000F8018583C8010E943C1386E0EAE7F1E023
:102AF000DF011D928A95E9F7FE2C99C04D875E870C
:102B00008D859E856A8B0E94A3136A89882309F4A8
:102B1000BECF662309F4BBCF20917F01822F82951F
:102B20008F7090E002970CF48ECF80917A01909193
:102B30007B019A8389831B82DD82CC822E83CE0126
:102B400001967FCF809590958C0D9D1DACCFF62E74
:102B5000662309F49CCF75132EC034132CC020912A
:102B60007F0120FD1FC0822F82958F70D9F0D80180
:102B700015962C9315978F3049F08F5F982F92956B
:102B8000907F822F8F70892B15968C93C8010E949D
:102B90003C1386E0F801AAE7B1E001900D928A9516
:102BA000E1F793CF86E0F801AAE7B1E001900D923A
:102BB0008A95E1F73CC04D875E878D859E850E9492
:102BC000A313811140CF80917F01816080937F01A9
:102BD000C8010E943C132BC0662309F458CF4D87CF
:102BE0005E878D859E850E94A313F82E882309F4A5
:102BF0004ECF86E0F801AAE7B1E001900D928A95E8
:102C0000E1F78AE791E00E940B0F0E94F6135DCF77
:102C1000811139CF0CC0243031050CF038CF9F70B2
:102C200009F431CFF8019581907F09F02CCF8F2DD9
:102C300062960FB6F894DEBF0FBECDBFDF91CF9185
:102C40001F910F91FF90EF90DF90CF9008951F9309
:102C5000CF93DF93CDB7DEB72C970FB6F894DEBFD6
:102C60000FBECDBF4F83588769877A878B879C8734
:102C7000CE0107960E945114882369F08F819885B0
:102C80002A853B85232BF1F19F3F09F063C08F3FDD
:102C900009F060C037C086E0FE013796DE0111966C
:102CA00001900D928A95E1F76F817885EA85FB8521
:102CB000309741F17F3F11F46F3F21F1209149019D
:102CC00030E0C9010196877099274091480150E092
:102CD0008417950709F447C069837A83FD83EC83E1
:102CE00096E0929FD001939FB00D1124A65BBE4F3A
:102CF000FE01319601900D929A95E1F7809349017A
:102D00000E94C71316E080914801909149018917EC
:102D1000C1F1189FC0011124865B9E4F0E9451147F
:102D2000882379F1E09148011E9FF0011124E65BB0
:102D3000FE4F4081518162817381848195810E941F
:102D4000B7138091480190E001968770992780938E
:102D50004801D9CF4F81588569857A858B859C85B7
:102D60000E94B713CFCF0E947D1310924901109299
:102D70004801EAE7F1E086E0DF011D928A95E9F774
:102D8000C1CF2C960FB6F894DEBF0FBECDBFDF913A
:102D9000CF911F910895EF92FF920F931F93CF93BE
:102DA000DF938C01892B09F46CC0F12CEE24E394A1
:102DB000E8012196F8018491843740F4843008F0CA
:102DC00051C0813081F0823019F15BC0853709F440
:102DD00044C0A8F19CE7980F903708F052C08F7755
:102DE0000E944A1041C00E5F1F4FFE01C49180E255
:102DF0008C0F883048F4C7708E2D01C0880FCA959B
:102E0000EAF70E94551914C08C2F0E94110F2DC093
:102E10000E5F1F4FFE01C49180E28C0F883058F482
:102E2000C7708E2D01C0880FCA95EAF70E945B1902
:102E30000E947E191AC08C2F0E944A1016C00E5F85
:102E40001F4FFE01C491CC2381F08FE99FE00197D1
:102E5000F1F700C00000C150F6CF0E5F1F4FFE011A
:102E6000F49003C00E94110F8E018F2D882309F466
:102E70009FCFEFE9FFE03197F1F700C000008150EC
:102E8000F5CFDF91CF911F910F91FF90EF900895B3
:102E900008950C9448170E94491760938901709314
:102EA0008A0180938B0190938C010C946313089595
:102EB0000C944B170F931F930091890110918A0175
:102EC00020918B0130918C01602B712B822B932BE5
:102ED0001F910F910C944B170F931F930091890131
:102EE00010918A0120918B0130918C016023712314
:102EF000822393231F910F910C944B170F931F93D1
:102F00000091890110918A0120918B0130918C01EF
:102F100060277127822793271F910F910C944B17DD
:102F200008950C9490170E949117609385017093F7
:102F3000860180938701909388010C94631360E06D
:102F400070E0CB010C9493170F931F9341E050E076
:102F500060E070E08A019B0104C0000F111F221F76
:102F6000331F8A95D2F7C901B8011F910F910C94B4
:102F700093170F931F9341E050E060E070E004C0AE
:102F8000440F551F661F771F8A95D2F780918501E0
:102F900090918601A0918701B09188018A019B01DF
:102FA000082B192B2A2B3B2BC901B8011F910F911C
:102FB0000C9493170F931F9341E050E060E070E092
:102FC00004C0440F551F661F771F8A95D2F740959E
:102FD0005095609570958091850190918601A091A2
:102FE0008701B09188018A019B01082319232A23B4
:102FF0003B23C901B8011F910F910C9493170F93B4
:103000001F9341E050E060E070E004C0440F551FA2
:10301000661F771F8A95D2F780918501909186016E
:10302000A0918701B09188018A019B010827192787
:103030002A273B27C901B8011F910F910C949317C0
:103040000F931F93009185011091860120918701B4
:1030500030918801602B712B822B932B1F910F9144
:103060000C9493170F931F93009185011091860183
:10307000209187013091880160237123822393235B
:103080001F910F910C9493170F931F93009185013B
:103090001091860120918701309188016027712766
:1030A000822793271F910F910C949317089528E07E
:1030B000929F800D1124A82FA695A695A69587709E
:1030C00051E001C0550F8A95EAF785E0A89FD0012D
:1030D000112420E030E070E0F901EA0FFB1FE05816
:1030E000FE4F4081CB01022E02C0969587950A942F
:1030F000E2F781709927819584278523842780832F
:103100002F5F3F4F2530310539F7089528E0929F12
:10311000800D1124682F669566956695982F977097
:1031200085E0689FB001112440E050E080E0FA01A2
:10313000E60FF71FE058FE4F208130E0092E02C055
:10314000369527950A94E2F721703327042E01C0A3
:10315000220F0A94EAF7822B4F5F5F4F45305105EB
:1031600031F70895BF92CF92DF92EF92FF920F93C3
:103170001F93CF93DF938C01C0908901D0908A0177
:10318000E0908B01F0908C018091850190918601F7
:10319000A0918701B0918801C82AD92AEA2AFB2A7E
:1031A000CFE1D0E0D701C6010C2E04C0B695A7959B
:1031B000979587950A94D2F780FF07C0BC2EB80177
:1031C0008C2F0E94B409019719F4219758F7B12C5C
:1031D0008B2DDF91CF911F910F91FF90EF90DF909A
:1031E000CF90BF900895CF93DF93EC010E94B21867
:1031F000BE010E94B409DF91CF9108951F93CF9330
:10320000DF93EB0190914701992321F0CB010E94BC
:10321000F31813C0882349F0CB010E94B218182F6D
:10322000682FCE010E94571804C0CB010E94861857
:10323000182FBE01812F0E94B409DF91CF911F91F9
:10324000089580918D018595859585950895809146
:103250008D018770089590918D01977081E009F438
:1032600080E0089580919901089590919901892BAA
:103270008093990108958095909199018923809375
:103280009901089510929901089590919801892BC0
:103290008093980108958095909198018923809357
:1032A0009801089510929801089590919701892BA3
:1032B0008093970108958095909197018923809339
:1032C0009701089510929701089580918E010895B5
:1032D00008950C94681990918E01981721F08093AD
:1032E0008E010C946919089580918E01882329F02C
:1032F00010928E0180E00C9469190895E09100010C
:10330000F0910101809199018083E0910001F09199
:103310000101908180919801892B8083E0910001C7
:10332000F0910101908180919701892B8083809198
:103330008E01882381F0E0910001F09101019081DC
:10334000892B808380910001909101010E94791A5C
:1033500081110E94741980910001909101010C94D7
:10336000890D08950C94B11998E0899F900111245A
:10337000262B20938D010E94B91780918D01859590
:10338000859585950C94B21910928D0180E00C946E
:10339000B21920918D018095822380938D01982F01
:1033A000977079F430E0482F082E000C550B241745
:1033B000350739F08595859585950E94DA170C9427
:1033C000C41908959093350180933401089582952E
:1033D000982F9C7C392F36953695282F237344E0FF
:1033E000249FC0011124932F982B292F2A7A2695E8
:1033F000892F8575880F822B089580E090E00E94C8
:103400009F2B21E08D3E9E4F09F020E0822F0895F2
:1034100082E090E00C94972B83E090E00C94972B43
:1034200084E090E00C94972B682F84E090E00C945B
:10343000A52BAB01BC018FE090E00C94B72BAB0146
:10344000BC0183E190E00C94B72B60E070E0CB010D
:103450000C941F1A60E070E0CB010E94191A0C94C2
:10346000251A6DEE7EEF80E090E00E94C32B60E0B5
:1034700082E090E00E94A52B60E083E090E00E9453
:10348000A52B1092890110928A0110928B01109243
:103490008C0160E084E090E00E94A52B60E085E074
:1034A00090E00E94A52B60E086E090E00E94A52BB2
:1034B0006FEF87E090E00E94A52B40E050E0BA015A
:1034C00088E090E00E94B72B60E08DE090E00E94E1
:1034D000A52B40E050E0BA0188E190E00E94B72BB4
:1034E00060E087E190E00E94A52B0C942A1A0C94CE
:1034F000311AFC01329697E080E0915029F0219139
:103500002223D9F38F5FF9CF08959C01FC013296F5
:103510009FEF80E04191461789F09F3F19F44111D8
:1035200001C0982F8F5F8630A9F79F3F39F0F901CE
:10353000E90FF11D97FDFA95628308950895FC0146
:10354000329608962081261301C010823196E81722
:10355000F907C1F708950C94851A0C949F1A0296E6
:1035600026E0FC0111922A95E9F7089508950C943C
:10357000B61A0E94B71A8091C201843049F11092A4
:103580009B0120E488E190E00FB6F894A895809321
:1035900060000FBE2093600080E00E949A080E94A5
:1035A000B71A83B7817F846083BF83B7816083BF8D
:1035B0007894889583B78E7F83BF0FB6F894A895CB
:1035C00080916000886180936000109260000FBE5F
:1035D0000895089508950E94E91A0E94640C0E94BB
:1035E000EA1A80E00E940F0C91E0811101C090E086
:1035F000892F089508950C94FA1A0E947D130E9451
:103600007D0D0E949A080C94FB1A1F920F920FB620
:103610000F9211248F939F93AF93BF9380919B013F
:10362000811113C08091B8019091B901A091BA01A4
:10363000B091BB014196A11DB11D8093B80190933B
:10364000B901A093BA01B093BB01BF91AF919F9113
:103650008F910F900FBE0F901F90189582E084BD40
:1036600093E095BD9AEF97BD80936E0008952FB7B4
:10367000F8948091B8019091B901A091BA01B091EC
:10368000BB012FBF08952FB7F8946091B8017091D6
:10369000B9018091BA019091BB012FBF0895CF92DB
:1036A000DF92EF92FF920F931F932FB7F894409100
:1036B000B8015091B9016091BA017091BB012FBF5F
:1036C0006A017B01EE24FF248C0120E030E0C0166B
:1036D000D106E206F30610F4415051099A01281B65
:1036E000390BC9011F910F91FF90EF90DF90CF90A0
:1036F000089578941F920F920FB60F9211248F9312
:103700009F93AF93BF938091B8019091B901A0911D
:10371000BA01B091BB010196A11DB11D8093B80102
:103720009093B901A093BA01B093BB01BF91AF913F
:103730009F918F910F900FBE0F901F90189581E071
:103740008093E00080E28093D8001092C9008FE15E
:103750009EE40197F1F700C0000087E090EBDC01E8
:103760008093CB019093CC01A093CD01B093CE0177
:103770009CE088E10FB6F894A895809360000FBE96
:1037800090936000FFCF0E94FD19811102C00E943A
:10379000771A0E94081A80939A010E94101A90E0EA
:1037A0009093BD018093BC010E940C1A682F70E0B9
:1037B00080E090E00C94581780919F0180FF0BC02F
:1037C0006091050185E0689FB001112475956795AA
:1037D000759567952BC081FF09C06091050185E053
:1037E000689FB00111247595679520C082FF07C0BE
:1037F0006091050185E0689FB001112417C0909188
:103800009E019923D1F060910401961788F72091C9
:10381000050185E0289F90011124929FA001939FAC
:10382000500D112470E0CA010E94692B60387105A7
:1038300040F46115710539F002C065E070E0862F33
:1038400008958FE7089581E0089580919F0180FF9A
:1038500008C06091030170E075956795759567954F
:1038600021C081FF06C06091030170E075956795E6
:1038700019C082FF04C06091030170E010C09091F4
:103880009E019923C1F0609102019617A0F78091E3
:103890000301899FC001112470E00E94692B6038E8
:1038A000710528F46115710521F0862F08958FE7C1
:1038B000089581E0089561E070E0F4CF803F21F445
:1038C0000E94DC1B819504C0813F29F40E94DC1B0F
:1038D0008093A3010895823F21F40E94DC1B81950F
:1038E00004C0833F29F40E94DC1B8093A201089549
:1038F000893F19F40E94251C05C08A3F31F40E94BB
:10390000251C81958093A40108958B3F21F40E948A
:10391000251C819504C08C3F29F40E94251C8093AE
:10392000A5010895843F21F48091A101816017C011
:10393000853F21F48091A101826011C0863F21F46E
:103940008091A10184600BC0873F21F48091A10187
:10395000886005C0883F31F48091A1018061809327
:10396000A10108958D3F21F480919F0181600BC0DA
:103970008E3F21F480919F01826005C08F3F29F422
:1039800080919F01846080939F010895803F39F466
:103990008091A30187FF6CC01092A30169C0813F91
:1039A00029F48091A3011816BCF362C09091A20182
:1039B000823F29F497FF5CC01092A20159C0833F57
:1039C00019F41916CCF354C0893F41F48091A40135
:1039D00018160CF04DC01092A4014AC08A3F29F479
:1039E0008091A40187FF44C0F6CF8B3F39F48091CA
:1039F000A50187FF3DC01092A5013AC08C3F29F474
:103A00008091A5011816BCF333C0843F21F4809146
:103A1000A1018E7F17C0853F21F48091A1018D7F88
:103A200011C0863F21F48091A1018B7F0BC0873F9D
:103A300021F48091A101877F05C0883F31F48091F6
:103A4000A1018F7E8093A10113C08D3F21F480914D
:103A50009F018E7F0BC08E3F21F480919F018D7F4F
:103A600005C08F3F29F480919F018B7F80939F0138
:103A70008091A20181110EC08091A30181110AC021
:103A80008091A401811106C08091A501811102C01D
:103A900010929E01089580919A0183FF7EC082E971
:103AA00093E00E9420078091A1011F928F938DE8DF
:103AB00093E09F938F930E94B9078BE893E00E9455
:103AC00020078091A201282F082E000C330B3F9372
:103AD0008F9388E893E09F938F930E94B90786E8BD
:103AE00093E00E9420078091A301282F082E000C4C
:103AF000330B3F938F9383E893E09F938F930E94C0
:103B0000B90781E893E00E9420078091A401282F43
:103B1000082E000C330B3F938F938EE793E09F9317
:103B20008F930E94B9078CE793E00E942007809151
:103B3000A501282F082E000C330B3F938F9389E7A4
:103B400093E09F938F930E94B90786E793E00E94CA
:103B5000200780919E011F928F9383E793E09F93AC
:103B60008F930E94B90781E793E00E94200780911C
:103B70009F011F928F938EE693E09F938F930E94F5
:103B8000B9078BE693E00E9420078DB79EB74C964D
:103B90000FB6F8949EBF0FBE8DBF80EA91E00E94E1
:103BA000D20D0E94371B90939D0180939C01089534
:103BB0001F93CF93DF9380919C0190919D010E9470
:103BC0004F1BAC0190919E01992321F02091060199
:103BD00030E006C0209107018AE0289F900111245F
:103BE0004217530708F46EC08091A201C091A3014F
:103BF000D091A4011091A501811107C0C1115EC02F
:103C0000D1115CC011115AC05DC09F3F19F09F5F78
:103C100090939E01181624F40E94DC1B8093A2014D
:103C20008091A20187FF05C00E94DC1B81958093D3
:103C3000A2011C1624F40E94DC1B8093A301809136
:103C4000A30187FF05C00E94DC1B81958093A3011F
:103C50004091A201442379F03091A301332359F01C
:103C600025EB4203A00111245093A2013203C001AD
:103C700011249093A3011D1624F40E94251C809307
:103C8000A4018091A40187FF05C00E94251C819595
:103C90008093A401111624F40E94251C8093A50191
:103CA0008091A50187FF05C00E94251C8195809306
:103CB000A501DF91CF911F910C944B1D9F3F09F0FF
:103CC000A6CFAECFDF91CF911F910895E0EAF1E04A
:103CD00086E0DF011D928A95E9F710929E0110920D
:103CE0009F01089585EB95E00E9420071F9281E0D7
:103CF0008F931F9285E08F9387E695E09F938F9334
:103D00000E94B9070F900F900F900F900F900F9097
:103D100008958330E9F128F4813061F0823009F1AF
:103D20000895853009F462C008F449C0863009F46A
:103D300074C0089580910701262F30E0280F311DAF
:103D40002F3F310524F4680F6093070103C08FEF04
:103D500080930701809107011F928F9380EA94E07E
:103D600072C080910601262F30E0280F311D2F3FB1
:103D7000310524F4680F6093060103C08FEF809330
:103D80000601809106011F928F938EE894E05BC03C
:103D900080910501262F30E0280F311D2F3F31057E
:103DA00024F4680F6093050103C08FEF8093050131
:103DB000809105011F928F938BE794E044C080911E
:103DC0000401262F30E0280F311D2F3F310524F448
:103DD000680F6093040103C08FEF8093040180910A
:103DE00004011F928F9386E694E02DC08091030119
:103DF000262F30E0280F311D2F3F310524F4680FA6
:103E00006093030103C08FEF80930301809103014E
:103E10001F928F938DE494E016C080910201262FAB
:103E200030E0280F311D2F3F310524F4680F6093D7
:103E3000020103C08FEF80930201809102011F9263
:103E40008F9382E394E09F938F930E94B9070F9022
:103E50000F900F900F900895833081F128F48130F6
:103E600059F08230D1F00895853009F449C0B8F195
:103E7000863009F456C0089580910701681720F430
:103E8000861B8093070102C01092070180910701F1
:103E90001F928F9383E294E054C0809106016817CB
:103EA00020F4861B8093060102C0109206018091C7
:103EB00006011F928F9381E194E043C08091050138
:103EC000681720F4861B8093050102C0109205013B
:103ED000809105011F928F938EEF93E032C0809105
:103EE0000401681720F4861B8093040102C010921D
:103EF0000401809104011F928F9389EE93E021C009
:103F000080910301681720F4861B8093030102C08F
:103F100010920301809103011F928F9380ED93E033
:103F200010C080910201681720F4861B8093020163
:103F300002C010920201809102011F928F9385EBC3
:103F400093E09F938F930E94B9070F900F900F906B
:103F50000F900895CF93C82F1F928F938AEB96E00E
:103F60009F938F930E94B90781E090E0A0E0B0E0BA
:103F7000BC01CD0104C0660F771F881F991FCA9529
:103F8000D2F70E9458170F900F900F900F90CF917B
:103F90000C947D13CF938B3109F4D1C108F067C124
:103FA0008B3009F48AC108F03DC1863009F488C11C
:103FB00020F4853009F496C144C2873009F4A4C1C5
:103FC000883009F03EC286ED9BE00E94200787E220
:103FD0009BE00E9420070E940C1A1F928F9384E29C
:103FE0009BE09F938F930E94B90782E29BE00E941F
:103FF00020070E94081AC82F8FE09BE00E9420072C
:104000001F92CF938AE09BE09F938F930E94B90702
:1040100088E09BE00E9420078EEF9AE00E94200734
:104020008C2F81701F928F938BEF9AE09F938F93C9
:104030000E94B90789EF9AE00E9420078FEE9AE06C
:104040000E942007C1FB882780F91F928F938CEE76
:104050009AE09F938F930E94B9078AEE9AE00E949C
:1040600020078EED9AE00E942007C2FB882780F986
:104070001F928F938BED9AE09F938F930E94B907C5
:1040800089ED9AE00E94200780ED9AE00E942007C7
:10409000C3FBCC27C0F91F92CF938DEC9AE09F937E
:1040A0008F930E94B9078BEC9AE00E9420070E9430
:1040B000101AC82F87EB9AE00E9420071F92CF9317
:1040C00082EB9AE09F938F930E94B90780EB9AE06E
:1040D0000E94200787E99AE00E9420078C2F8170B8
:1040E0001F928F9384E99AE09F938F930E94B90760
:1040F0008DB79EB780960FB6F8949EBF0FBE8DBF4A
:1041000082E99AE00E9420078BE79AE00E9420074C
:10411000C1FB882780F91F928F9388E79AE09F93CD
:104120008F930E94B90786E79AE00E94200784E6F1
:104130009AE00E942007C2FB882780F91F928F9384
:1041400081E69AE09F938F930E94B9078FE59AE0EA
:104150000E9420078DE49AE00E942007C3FB882775
:1041600080F91F928F938AE49AE09F938F930E9425
:10417000B90788E49AE00E9420078EE39AE00E9443
:104180002007C4FB882780F91F928F938BE39AE066
:104190009F938F930E94B90789E39AE00E942007BA
:1041A00087E29AE00E942007C5FB882780F91F92CA
:1041B0008F9384E29AE09F938F930E94B90782E2E3
:1041C0009AE00E94200786E09AE00E942007C6FB42
:1041D000882780F91F928F9383E09AE09F938F93B3
:1041E0000E94B90781E09AE00E94200789EF99E0D8
:1041F0000E942007C7FBCC27C0F91F92CF9386EF00
:1042000099E09F938F930E94B90784EF99E00E94F1
:1042100020078DB79EB74C960FB6F8949EBF0FBE81
:104220008DBF49C0803109F4B4C020F48E3009F448
:104230009AC007C1863109F4C7C0893109F001C1AC
:104240008BE198E00E94200782E098E00E9420071E
:1042500086EC97E00E9420078CE897E00E942007F8
:1042600086E597E00E94200788E297E08FC08A32B7
:10427000E1F060F4873209F4E0C028F48E3108F4EC
:10428000E0C08D51DBC0893269F1DBC0833448F472
:104290008A3308F0D0C0853309F4CFC0883369F081
:1042A000D0C0833409F4C9C0CCC085EC9BE00E9427
:1042B00020070E94771AC1E0C9C081E598E066C076
:1042C00080919A01817F8E7F80939A018AE298E0A3
:1042D0000E94200781EC9BE00E94200781E08093F0
:1042E000A701E9CF0E947D1385EA9BE00E94200789
:1042F0009FEF23ED80E3915020408040E1F700C024
:1043000000000E949F1BD7CF80919A01C82FC095B3
:10431000C170C0FB80F980939A01CC2329F089E910
:104320009BE00E94200792C08CE89BE00E9420073F
:1043300080919A01897F877F80939A01BCCF909169
:104340009A0191FBCC27C0F981E0C827892FC0FBD7
:1043500081F980939A01CC2319F08FE79BE029C063
:1043600081E79BE013C090919A0192FBCC27C0F9A2
:1043700081E0C827892FC0FB82F980939A01CC2362
:1043800019F082E69BE015C082E59BE00E942007C1
:1043900092CF90919A0193FBCC27C0F981E0C82776
:1043A000892FC0FB83F980939A01CC2351F086E4D6
:1043B0009BE00E94200780919A01816080939A017E
:1043C00045C089E39BE0E2CF8AE197E00E942007A5
:1043D0000E947D0D1F928F9380E097E09F938F93B3
:1043E0000E94B907809112011F928F9389EE96E087
:1043F0009F938F930E94B9078091B4011F928F936E
:1044000086ED96E09F938F930E94B9070E94431B0D
:104410009F938F937F936F938FEB96E09F938F93F0
:104420000E94B9078DB79EB742960FB6F8949EBF0B
:104430000FBE8DBF40CF895301C080E00E94AA1FEC
:104440003ACF87E39BE00E942007C0E08C2FCF91FA
:10445000089580E0089580E008958E518A3030F408
:10446000E82FF0E0E55EFE4F8081089580E008953A
:10447000CF93C82F8091A701813059F020F082306E
:1044800009F445C039C10E943219823209F036C19F
:1044900004C00E943219823261F48C2F0E942922BA
:1044A000811104C08C2F0E94CA1F2FC081E090E0B0
:1044B0002CC08C2F0E942B22811126C0C431E1F028
:1044C00070F4CB3081F0C031D1F40E94721E82EBC7
:1044D00096E00E94200782E08093A70115C0C932B0
:1044E00059F0C83361F48AE298E00E94200786EB15
:1044F00096E00E94200708C01092A70101C180EB3E
:1045000096E00E942007FCC081E08170FBC0C432AD
:1045100028F5CE3108F0C1C0CB30A1F1D0F4C730BE
:1045200009F0D0C08EE18093070182E380930601F9
:104530008AE08093050184E18093040188E0809300
:10454000030188E28093020186E595E00E9420073E
:10455000BCC0C33149F1C431C1F0B4C0CB3409F49B
:10456000A6C028F4C93289F0C83361F0ABC0C135A8
:1045700009F49BC0C23509F496C0CE3409F0A2C03C
:104580006AE09BC00E94721EA0C08091A601882391
:1045900019F01092A60199C083E695E00E942007C9
:1045A00081E08093A701AEC08DE395E00E942007D3
:1045B0008BE295E00E942007809107011F928F9364
:1045C00088E295E09F938F930E94B90786E295E079
:1045D0000E94200784E195E00E9420078091060157
:1045E0001F928F9381E195E09F938F930E94B9076B
:1045F0008FE095E00E94200780E095E00E94200770
:10460000809105011F928F938DEF94E09F938F937C
:104610000E94B9078BEF94E00E9420078AEE94E095
:104620000E942007809104011F928F9387EE94E0EF
:104630009F938F930E94B90785EE94E00E94200714
:1046400080ED94E00E942007809103011F928F93D8
:104650008DEC94E09F938F930E94B9078BEC94E0CC
:104660000E94200784EB94E00E94200780910201C1
:104670001F928F9381EB94E09F938F930E94B907D1
:104680008FEA94E00E9420078DB79EB748960FB638
:10469000F8949EBF0FBE8DBF18C08C2F0E942D2294
:1046A0008093A60112C061E003C061E006C06AE029
:1046B0008091A6010E94891E08C08091A6010E94D7
:1046C0002C1F03C084E595E013C08091A6018823C8
:1046D00069F01F928F938EE495E09F938F930E94D1
:1046E000B9070F900F900F900F9004C08BE495E0E6
:1046F0000E94200781E006C01092A70180E002C05E
:1047000080E003CFCF9108958091B30108959FB7C2
:10471000F8941092AA019FBF9091C201943009F0C1
:1047200057C09091E9009F703091EC00232F2170C9
:1047300030FD20E8922B23E02093E9002091EB004C
:1047400020FF43C02091EE0027FF3FC02091A80129
:10475000222321F02091E80025FF37C01092A80104
:1047600026E03091E80035FD15C03091C2013430AB
:1047700061F53091EB0035FD28C0215021F481E036
:104780008093A80122C0EFE9FFE03197F1F700C064
:104790000000E7CF8093F1008091E80085FD0AC01A
:1047A0008091E80080FFFCCF8091E8008E778093B5
:1047B000E80006C08FB7F89421E02093AA018FBFCC
:1047C0009F709093E90080E008959F709093E900B6
:1047D0008FEF08950F931F93CF93DF9300D01F9215
:1047E000CDB7DEB78C010E94A526823011F084304F
:1047F00021F584E089831B830A8382E08093E900AA
:104800008FEF9091E800815095FD06C095ED9A9547
:10481000F1F700008111F5CF8091E80085FF0DC010
:1048200040E050E063E070E0CE0101960E94C226B5
:104830008091E8008E778093E8000F900F900F90A2
:10484000DF91CF911F910F910895CF93DF9300D007
:104850001F92CDB7DEB72091C201243031F523E09D
:104860002983805891099B838A8382E08093E900A1
:104870008FEF9091E800815095FD06C095ED9A95D7
:10488000F1F700008111F5CF8091E80085FF0DC0A0
:1048900040E050E063E070E0CE0101960E94C22645
:1048A0008091E8008E778093E8000F900F900F9032
:1048B000DF91CF910895CF93DF93EC010E94A5265D
:1048C000823011F08430F9F482E08093E9009FEFA8
:1048D0008091E800915085FD06C085ED8A95F1F73D
:1048E00000009111F5CF8091E80085FF0CC040E0F9
:1048F00050E066E070E0CE010E94C2268091E800A0
:104900008E778093E800DF91CF910895CF93DF9366
:10491000EC010E94A526823011F0843039F581E047
:104920008093E9008FEF9091E800815095FD06C0DB
:1049300095ED9A95F1F700008111F5CF8091E8008F
:1049400085FF14C040E050E068E070E0CE010E94B6
:10495000C2268091E8008E778093E80088E0FE010F
:10496000ABEAB1E001900D928A95E1F7DF91CF912A
:10497000089586E09CE00E9420078091C10181118A
:1049800009C00E9457280E94B4288091E2008460E8
:104990008093E200089582E09CE00E94200710923C
:1049A000C10108958EEF9BE00C9420078AEF9BE0F5
:1049B0000C94200786EF9BE00E9420070C94FD1AC0
:1049C0002091A9012F5F822F62E30E945D2B992322
:1049D00019F02093A90108951092A9018091AA01CC
:1049E000882371F18091C201843041F58091E90002
:1049F0008F702091EC00922F917020FD90E8892B10
:104A000093E09093E9009091EB0090FF14C0909197
:104A1000EE0097FF10C09091E80095FF03C0109240
:104A2000F100F9CF9091E80090FF05C09091E80067
:104A30009E779093E8008F708093E9001092AA010E
:104A4000089542E061EC81E00E94D12742E261ECEE
:104A500082E00E94D12742E261EC83E00C94D127EE
:104A60008091C401833009F460C030F4813071F06A
:104A7000823009F499C008958A3009F485C08B30DA
:104A800009F46BC0893009F0A7C020C08091C30130
:104A9000813A09F0A1C08091E800877F8093E80007
:104AA0008091C7019091C801892B21F468E08BEABD
:104AB00091E003C060E080E090E070E00E940D278C
:104AC0008091E8008B778093E80008958091C3017E
:104AD000813209F081C08091C7019091C80102978D
:104AE00008F07AC08091E800877F8093E800809189
:104AF000E80082FD05C08091C2018111F8CF6CC031
:104B00002091F3008091F20090E0922B029729F41B
:104B10008091F1008B7F813021F48091F1008093AE
:104B2000B3018091E8008B7753C08091C301813A33
:104B300009F052C08091C7019091C801892B09F0FA
:104B40004BC08091E800877F8093E8008091E80067
:104B500080FFFCCF8091120136C08091C301813269
:104B6000D9F58091C7019091C801892BA9F5809151
:104B7000E800877F8093E8000E9406288091C501A5
:104B8000809312010C947D138091C301813221F531
:104B90008091E800877F8093E8000E94062880913A
:104BA000C6018093B40108958091C301813AA1F4B4
:104BB0008091E800877F8093E8008091E80080FF83
:104BC000FCCF8091B4018093F1008091E8008E7752
:104BD0008093E8000C940628089584B7877F84BFEB
:104BE0000FB6F894A895809160008861809360006A
:104BF000109260000FBE80E8809361001092610007
:104C00000E941A0E0E9457280E94B4288091E20048
:104C100084608093E20087E893E20E94E21978942E
:104C20000E94422B0E94220E88E091E00E94780DA3
:104C300085EE9BE00E9420078091C201853089F4B7
:104C400081EE9BE00E9420070E94B91A8091C0016A
:104C5000882391F30E94EB1A882371F30E94AC26FB
:104C6000EBCF0E94520EE8CF0C943626292F332723
:104C700023303105C9F064F42130310581F0223050
:104C8000310509F049C08BE590E022E43CE048C0E2
:104C90002132310521F12232310571F13DC082E12D
:104CA00090E02DE93CE03CC099278130910571F0FE
:104CB0002CF4892B89F5EEE3FCE00DC082309105E0
:104CC00041F0039749F5EAE0FCE005C0E6E2FCE0CC
:104CD00002C0E0E1FCE0849190E09F0121C06330DC
:104CE0007105D0F4660F771FFB01E25DFE4F208156
:104CF000318189E090E014C06330710568F4FB01F4
:104D0000EE0FFF1FE85DFE4F20813181FB01EB5D5F
:104D1000FE4F808190E004C080E090E020E030E031
:104D2000FA013183208308950895CF93C82F0E94FC
:104D30009426C093B501CF9108958091C20184302B
:104D400011F081E0089582E008958091B50181110C
:104D500002C00C949D26089580E189BD82E189BD41
:104D600009B400FEFDCF8091D8008F7D8093D800DC
:104D70008091E00082608093E0008091E00081FDFE
:104D8000FCCF0895CF92DF92EF92FF920F931F9383
:104D9000CF93DF93EC018B016A010E9425288111DA
:104DA00033C0C114D10439F0F60180819181081B10
:104DB000190BC80FD91FE12CF12C0115110519F1A0
:104DC0008091E80085FD16C08091E8008E77809381
:104DD000E800C114D10449F0F60180819181E80E08
:104DE000F91EF182E08285E00FC00E942528882309
:104DF00021F30AC089918093F10001501109FFEF5E
:104E0000EF1AFF0ADACF80E0DF91CF911F910F9167
:104E1000FF90EF90DF90CF9008952091C9013091DD
:104E2000CA012617370748F06115710539F420913A
:104E3000E8002E772093E80001C0B90140E0611539
:104E40007105A9F12091C201222309F443C0253044
:104E500009F442C02091E80023FD40C02091E80001
:104E600022FD32C02091E80020FFE9CF4091F300FD
:104E70002091F20030E0342BFC01CF016115710567
:104E800059F02830310540F481918093F100615050
:104E900071092F5F3F4FF1CF41E02830310509F014
:104EA00040E02091E8002E772093E800C8CF411120
:104EB000C9CF0AC08091C201882361F0853061F0BA
:104EC0008091E80083FD0AC08091E80082FFF2CF64
:104ED00080E0089582E0089583E0089581E00895D8
:104EE0002091C9013091CA012617370748F0611592
:104EF000710539F42091E8002E772093E80001C075
:104F0000B901FC0120E06115710591F18091C201A8
:104F1000882309F440C0853009F43FC08091E8003F
:104F200083FD3DC08091E80082FD2FC08091E800A4
:104F300080FFE9CF2091F3008091F20090E0922B66
:104F40006115710559F08830910540F42491209342
:104F5000F1003196615071090196F2CF21E0089776
:104F600009F020E08091E8008E778093E800CBCFB5
:104F70002111CCCF0AC08091C201882361F0853015
:104F800061F08091E80083FD0AC08091E80082FF13
:104F9000F2CF80E0089582E0089583E0089581E0F3
:104FA0000895982F973058F59093E900981739F0A5
:104FB0007091EC002091ED005091F00003C0242F7F
:104FC000762F50E021FF19C03091EB003E7F3093E7
:104FD000EB003091ED003D7F3093ED003091EB0020
:104FE00031603093EB007093EC002093ED00509310
:104FF000F0002091EE0027FF07C09F5FD3CF8F7096
:105000008093E90081E0089580E008958091C301D4
:1050100087FF11C08091E80082FD05C08091C20128
:105020008111F8CF11C08091E8008B770BC080917F
:10503000C201882349F08091E80080FFF8CF809179
:10504000E8008E778093E80008952091E400309185
:10505000E50095E64091EC00842F817040FF22C06E
:105060008091E80080FD1CC08091C201882391F0EE
:10507000853091F08091EB0085FD10C04091E400F7
:105080005091E5004217530729F39A01915011F707
:1050900084E0089582E0089583E0089581E0089512
:1050A00080E008954091E80042FFDECF08950E941D
:1050B000C5280E94CD28E0EEF0E0808181608083E9
:1050C000E8EDF0E080818F77808319BCA7EDB0E038
:1050D0008C918E7F8C9380818F7E80831092C10112
:1050E00008950F931F93CF93DF930E94C5280E94CA
:1050F000CD28C8EDD0E088818F778883888180684B
:10510000888388818F7D888319BC1092C201109298
:10511000BE011092C0011092BF0100EE10E0F80134
:1051200080818B7F808388818160888342E060E01A
:1051300080E00E94D127E1EEF0E080818E7F8083C5
:10514000E2EEF0E0808181608083808188608083EE
:10515000F80180818E7F8083888180618883DF91E0
:10516000CF911F910F910895E8EDF0E080818F7E3F
:105170008083E7EDF0E080818160808384E082BFFE
:1051800081E08093C1010C947128E8EDF0E080810A
:105190008E7F80831092E20008951092DA001092C0
:1051A000E10008951F920F920FB60F9211242F93D2
:1051B0003F934F935F936F937F938F939F93AF939F
:1051C000BF93EF93FF938091E10082FF0BC080912A
:1051D000E20082FF07C08091E1008B7F8093E100B5
:1051E0000E94E0248091DA0080FF1FC08091D800E7
:1051F00080FF1BC08091DA008E7F8093DA0080915F
:10520000D90080FF0DC080E189BD82E189BD09B46C
:1052100000FEFDCF81E08093C2010E94B92405C049
:1052200019BC1092C2010E94CB248091E10080FF42
:1052300019C08091E20080FF15C08091E2008E7F4E
:105240008093E2008091E20080618093E20080918F
:10525000D80080628093D80019BC85E08093C20199
:105260000E94D6248091E10084FF30C08091E2004A
:1052700084FF2CC080E189BD82E189BD09B400FEB4
:10528000FDCF8091D8008F7D8093D8008091E10080
:105290008F7E8093E1008091E2008F7E8093E20018
:1052A0008091E20081608093E2008091BE018823BA
:1052B00011F084E007C08091E30087FD02C081E027
:1052C00001C083E08093C2010E94DA248091E10052
:1052D00083FF29C08091E20083FF25C08091E10017
:1052E000877F8093E10082E08093C2011092BE012B
:1052F0008091E1008E7F8093E1008091E2008E7FBB
:105300008093E2008091E20080618093E20042E0BD
:1053100060E080E00E94D1278091F0008860809357
:10532000F0000E94D224FF91EF91BF91AF919F9125
:105330008F917F916F915F914F913F912F910F903E
:105340000FBE0F901F9018951F920F920FB60F92DD
:1053500011242F933F934F935F936F937F938F937A
:105360009F93AF93BF93CF93DF93EF93FF93C0913E
:10537000E900CF708091EC00D82FD17080FDD0E88B
:105380001092E9008091F000877F8093F00078947C
:105390000E94E8291092E9008091F00088608093D3
:1053A000F000CD2BCF70C093E900FF91EF91DF911A
:1053B000CF91BF91AF919F918F917F916F915F91AD
:1053C0004F913F912F910F900FBE0F901F90189506
:1053D0001F93CF93DF93CDB7DEB7AA970FB6F8949C
:1053E000DEBF0FBECDBFE3ECF1E088E08E0F909101
:1053F000F10091938E13FBCF0E9430258091E8003D
:1054000083FF28C18091C3019091C401492F50E0CE
:105410004A30510508F01EC1FA01E556FF4F0C94C1
:105420007D2B803821F0823809F014C108C08091AA
:10543000BF019091C001992389F082600FC08091D3
:10544000C7018F70873008F005C18093E900809113
:10545000EB0085FB882780F91092E9009091E80025
:10546000977F9093E8008093F1001092F100D0C0F4
:10547000282F2D7F09F0EEC0882319F0823061F0CB
:10548000E9C08091C501813009F0E4C0933009F092
:1054900080E08093C0012EC08091C50181112AC097
:1054A0008091C7018F702FEF280F263008F0D2C0EF
:1054B0008093E9002091EB0020FF1CC0933021F481
:1054C0008091EB00806214C09091EB00906190930A
:1054D000EB0021E030E0A90102C0440F551F8A957E
:1054E000E2F74093EA001092EA008091EB008860B6
:1054F0008093EB001092E9008091E800877F809311
:10550000E8000E940628A6C08111A4C01091C50120
:105510001F778091E3008078812B8093E300809156
:10552000E800877F8093E8000E9406288091E800C9
:1055300080FFFCCF8091E30080688093E30011112D
:1055400002C082E001C083E08093C20183C0805822
:10555000823008F07FC08091C5019091C6018C3DDA
:1055600053E0950779F583E08A838AE289834FB710
:10557000F894DE01139620E03EE051E2E32FF0E0E4
:1055800050935700E49120FF03C0E295EF703F5F16
:10559000EF708E2F90E0EA3010F0C79601C0C096F1
:1055A0008D939D932F5F243149F74FBF8091E80081
:1055B000877F8093E8006AE270E0CE0101960E9446
:1055C0000D2715C06091C7017091C801AE014F5FF2
:1055D0005F4F0E943426BC01892BE1F19091E800D5
:1055E000977F9093E80089819A810E94702780912B
:1055F000E8008B778093E8002DC0803859F58091C2
:10560000E800877F8093E8008091BE018093F100DD
:105610008091E8008E7773CF81111CC09091C501F5
:105620009230C0F48091E800877F8093E8009093E7
:10563000BE010E9406288091BE01811106C08091A2
:10564000E30087FD02C081E001C084E08093C201D5
:105650000E9421258091E80083FF0AC08091E80024
:10566000877F8093E8008091EB0080628093EB005D
:10567000AA960FB6F894DEBF0FBECDBFDF91CF91D3
:105680001F910895CF938091C2018823A1F0C0910A
:10569000E900CF709091EC00892F817090FD80E837
:1056A000C82B1092E9008091E80083FD0E94E82950
:1056B000CF70C093E900CF910895991B79E004C0A1
:1056C000991F961708F0961B881F7A95C9F7809541
:1056D000089597FB072E16F4009407D077FD09D0A4
:1056E0000E94832B07FC05D03EF4909581959F4F37
:1056F0000895709561957F4F0895EE0FFF1F0590F7
:10570000F491E02D0994AA1BBB1B51E107C0AA1F0D
:10571000BB1FA617B70710F0A61BB70B881F991F52
:105720005A95A9F780959095BC01CD010895F999F6
:10573000FECF92BD81BDF89A992780B50895A8E162
:10574000B0E042E050E00C94CB2B262FF999FECF2D
:1057500092BD81BDF89A019700B4021639F01FBAC4
:1057600020BD0FB6F894FA9AF99A0FBE08950396E1
:10577000272F0E94A62B0E94A52B252F0E94A62B27
:10578000242F0C94A62B0196272F0E94A62B0C9455
:10579000A52BDC01CB01FC01F999FECF06C0F2BDBF
:1057A000E1BDF89A319600B40D9241505040B8F7DF
:0657B0000895F894FFCFFC
:1057B6008F012808140A321E842386245B2425249C
:1057C600EA2301919094663534C6970102030405D5
:1057D6000607080900408522560DD10CAF0C540C63
:0457E6006D0C860CB4
:00000001FF
